{
  "contractName": "ERC165",
  "abi": [
    {
      "inputs": [],
      "stateMutability": "nonpayable",
      "type": "constructor"
    },
    {
      "inputs": [
        {
          "internalType": "bytes4",
          "name": "interfaceID",
          "type": "bytes4"
        }
      ],
      "name": "supportsInterface",
      "outputs": [
        {
          "internalType": "bool",
          "name": "",
          "type": "bool"
        }
      ],
      "stateMutability": "view",
      "type": "function"
    }
  ],
  "bytecode": "0x608060405234801561001057600080fd5b5061003a7f75e79be6cc7b0fa1c9ef93c49173e275135de3af55610b234fd35ad9f20df38161003f565b6100c2565b6001600160e01b0319808216900361009d5760405162461bcd60e51b815260206004820152601960248201527f496e76616c696420696e74657266616365207265717565737400000000000000604482015260640160405180910390fd5b6001600160e01b0319166000908152602081905260409020805460ff19166001179055565b60d0806100d06000396000f3fe6080604052348015600f57600080fd5b506004361060285760003560e01c806301ffc9a714602d575b600080fd5b60576038366004606b565b6001600160e01b03191660009081526020819052604090205460ff1690565b604051901515815260200160405180910390f35b600060208284031215607c57600080fd5b81356001600160e01b031981168114609357600080fd5b939250505056fea2646970667358221220ec91d190485584dba7487a8b152921aa0ec0191b018475824924f0f8e431ff7164736f6c63430008150033",
  "immutableReferences": {},
  "source": "// SPDX-License-Identifier:MIT\r\n\r\npragma solidity ^0.8.21;\r\n\r\nimport './interfaces/IERC165.sol';\r\n\r\ncontract ERC165 is IERC165 {\r\n    mapping(bytes4 => bool) private _supportedInterfaces;\r\n\r\n    constructor() {\r\n        _registerInterface(bytes4(keccak256('supportInterface(bytes4)')));\r\n    }\r\n\r\n    function supportsInterface(bytes4 interfaceID) external view override returns (bool) {\r\n        return _supportedInterfaces[interfaceID];\r\n    }\r\n\r\n    function _registerInterface(bytes4 interfaceId) internal {\r\n        require(interfaceId != 0xffffffff, 'Invalid interface request');\r\n        _supportedInterfaces[interfaceId] = true;\r\n    }\r\n}\r\n",
  "sourcePath": "C:\\dev\\ertex\\src\\contracts\\ERC165.sol",
  "compiler": {
    "name": "solc",
    "version": "0.8.21+commit.d9974bed.Emscripten.clang"
  },
  "schemaVersion": "3.4.16",
  "updatedAt": "2026-02-01T06:00:21.405Z",
  "devdoc": {
    "kind": "dev",
    "methods": {},
    "version": 1
  },
  "userdoc": {
    "kind": "user",
    "methods": {},
    "version": 1
  }
}