{
  "contractName": "ERC721Metadata",
  "abi": [
    {
      "inputs": [
        {
          "internalType": "string",
          "name": "named",
          "type": "string"
        },
        {
          "internalType": "string",
          "name": "symbolified",
          "type": "string"
        }
      ],
      "stateMutability": "nonpayable",
      "type": "constructor"
    },
    {
      "inputs": [
        {
          "internalType": "bytes4",
          "name": "interfaceID",
          "type": "bytes4"
        }
      ],
      "name": "supportsInterface",
      "outputs": [
        {
          "internalType": "bool",
          "name": "",
          "type": "bool"
        }
      ],
      "stateMutability": "view",
      "type": "function"
    },
    {
      "inputs": [],
      "name": "name",
      "outputs": [
        {
          "internalType": "string",
          "name": "",
          "type": "string"
        }
      ],
      "stateMutability": "view",
      "type": "function"
    },
    {
      "inputs": [],
      "name": "symbol",
      "outputs": [
        {
          "internalType": "string",
          "name": "",
          "type": "string"
        }
      ],
      "stateMutability": "view",
      "type": "function"
    }
  ],
  "bytecode": "0x608060405234801561001057600080fd5b506040516105cf3803806105cf83398101604081905261002f916101e0565b6100587f75e79be6cc7b0fa1c9ef93c49173e275135de3af55610b234fd35ad9f20df3816100a2565b6100817f6c5b7360b116f8fd1d2a1ccb905de5c6a9e91e31b88b8db3cd997e184f357e9f6100a2565b600161008d83826102cc565b50600261009a82826102cc565b50505061038b565b6001600160e01b031980821690036101005760405162461bcd60e51b815260206004820152601960248201527f496e76616c696420696e74657266616365207265717565737400000000000000604482015260640160405180910390fd5b6001600160e01b0319166000908152602081905260409020805460ff19166001179055565b634e487b7160e01b600052604160045260246000fd5b600082601f83011261014c57600080fd5b81516001600160401b038082111561016657610166610125565b604051601f8301601f19908116603f0116810190828211818310171561018e5761018e610125565b816040528381526020925086838588010111156101aa57600080fd5b600091505b838210156101cc57858201830151818301840152908201906101af565b600093810190920192909252949350505050565b600080604083850312156101f357600080fd5b82516001600160401b038082111561020a57600080fd5b6102168683870161013b565b9350602085015191508082111561022c57600080fd5b506102398582860161013b565b9150509250929050565b600181811c9082168061025757607f821691505b60208210810361027757634e487b7160e01b600052602260045260246000fd5b50919050565b601f8211156102c757600081815260208120601f850160051c810160208610156102a45750805b601f850160051c820191505b818110156102c3578281556001016102b0565b5050505b505050565b81516001600160401b038111156102e5576102e5610125565b6102f9816102f38454610243565b8461027d565b602080601f83116001811461032e57600084156103165750858301515b600019600386901b1c1916600185901b1785556102c3565b600085815260208120601f198616915b8281101561035d5788860151825594840194600190910190840161033e565b508582101561037b5787850151600019600388901b60f8161c191681555b5050505050600190811b01905550565b6102358061039a6000396000f3fe608060405234801561001057600080fd5b50600436106100415760003560e01c806301ffc9a71461004657806306fdde031461008857806395d89b411461009d575b600080fd5b610073610054366004610146565b6001600160e01b03191660009081526020819052604090205460ff1690565b60405190151581526020015b60405180910390f35b6100906100a5565b60405161007f9190610177565b610090610137565b6060600180546100b4906101c5565b80601f01602080910402602001604051908101604052809291908181526020018280546100e0906101c5565b801561012d5780601f106101025761010080835404028352916020019161012d565b820191906000526020600020905b81548152906001019060200180831161011057829003601f168201915b5050505050905090565b6060600280546100b4906101c5565b60006020828403121561015857600080fd5b81356001600160e01b03198116811461017057600080fd5b9392505050565b600060208083528351808285015260005b818110156101a457858101830151858201604001528201610188565b506000604082860101526040601f19601f8301168501019250505092915050565b600181811c908216806101d957607f821691505b6020821081036101f957634e487b7160e01b600052602260045260246000fd5b5091905056fea264697066735822122088aee9940003fe4579c79a60e66d8e3479e8f3839b2935ec20514ec71c777b3764736f6c63430008150033",
  "immutableReferences": {},
  "source": "// SPDX-License-Identifier:MIT\r\n\r\npragma solidity ^0.8.21;\r\n\r\nimport \"./interfaces/IERC721Metadata.sol\";\r\nimport \"./ERC165.sol\";\r\n\r\ncontract ERC721Metadata is IERC721Metadata, ERC165 {\r\n    string private _name;\r\n    string private _symbol;\r\n\r\n    constructor(string memory named, string memory symbolified) {\r\n        _registerInterface(bytes4(keccak256(\"name(bytes4)\")^\r\n        keccak256(\"symbol(bytes4)\")));\r\n\r\n        _name = named;\r\n        _symbol = symbolified;\r\n    }\r\n\r\n    function name() external view returns (string memory) {\r\n        return _name;\r\n    }\r\n\r\n    function symbol() external view returns (string memory) {\r\n        return _symbol;\r\n    }\r\n}\r\n",
  "sourcePath": "C:\\dev\\ertex\\src\\contracts\\ERC721Metadata.sol",
  "compiler": {
    "name": "solc",
    "version": "0.8.21+commit.d9974bed.Emscripten.clang"
  },
  "schemaVersion": "3.4.16",
  "updatedAt": "2026-02-01T06:00:21.419Z",
  "devdoc": {
    "kind": "dev",
    "methods": {},
    "version": 1
  },
  "userdoc": {
    "kind": "user",
    "methods": {},
    "version": 1
  }
}