{
  "contractName": "Ertex",
  "abi": [
    {
      "inputs": [],
      "stateMutability": "nonpayable",
      "type": "constructor"
    },
    {
      "anonymous": false,
      "inputs": [
        {
          "indexed": true,
          "internalType": "address",
          "name": "_owner",
          "type": "address"
        },
        {
          "indexed": true,
          "internalType": "address",
          "name": "_approved",
          "type": "address"
        },
        {
          "indexed": true,
          "internalType": "uint256",
          "name": "_tokenId",
          "type": "uint256"
        }
      ],
      "name": "Approval",
      "type": "event"
    },
    {
      "anonymous": false,
      "inputs": [
        {
          "indexed": true,
          "internalType": "address",
          "name": "from",
          "type": "address"
        },
        {
          "indexed": true,
          "internalType": "address",
          "name": "to",
          "type": "address"
        },
        {
          "indexed": true,
          "internalType": "uint256",
          "name": "tokenId",
          "type": "uint256"
        }
      ],
      "name": "Transfer",
      "type": "event"
    },
    {
      "inputs": [
        {
          "internalType": "uint256",
          "name": "",
          "type": "uint256"
        }
      ],
      "name": "ErtexNFTS",
      "outputs": [
        {
          "internalType": "string",
          "name": "",
          "type": "string"
        }
      ],
      "stateMutability": "view",
      "type": "function",
      "constant": true
    },
    {
      "inputs": [
        {
          "internalType": "address",
          "name": "_to",
          "type": "address"
        },
        {
          "internalType": "uint256",
          "name": "tokenId",
          "type": "uint256"
        }
      ],
      "name": "approve",
      "outputs": [],
      "stateMutability": "nonpayable",
      "type": "function"
    },
    {
      "inputs": [
        {
          "internalType": "address",
          "name": "_owner",
          "type": "address"
        }
      ],
      "name": "balanceOf",
      "outputs": [
        {
          "internalType": "uint256",
          "name": "",
          "type": "uint256"
        }
      ],
      "stateMutability": "view",
      "type": "function",
      "constant": true
    },
    {
      "inputs": [],
      "name": "name",
      "outputs": [
        {
          "internalType": "string",
          "name": "",
          "type": "string"
        }
      ],
      "stateMutability": "view",
      "type": "function",
      "constant": true
    },
    {
      "inputs": [
        {
          "internalType": "uint256",
          "name": "_tokenId",
          "type": "uint256"
        }
      ],
      "name": "ownerOf",
      "outputs": [
        {
          "internalType": "address",
          "name": "",
          "type": "address"
        }
      ],
      "stateMutability": "view",
      "type": "function",
      "constant": true
    },
    {
      "inputs": [
        {
          "internalType": "bytes4",
          "name": "interfaceID",
          "type": "bytes4"
        }
      ],
      "name": "supportsInterface",
      "outputs": [
        {
          "internalType": "bool",
          "name": "",
          "type": "bool"
        }
      ],
      "stateMutability": "view",
      "type": "function",
      "constant": true
    },
    {
      "inputs": [],
      "name": "symbol",
      "outputs": [
        {
          "internalType": "string",
          "name": "",
          "type": "string"
        }
      ],
      "stateMutability": "view",
      "type": "function",
      "constant": true
    },
    {
      "inputs": [
        {
          "internalType": "uint256",
          "name": "index",
          "type": "uint256"
        }
      ],
      "name": "tokenByIndex",
      "outputs": [
        {
          "internalType": "uint256",
          "name": "",
          "type": "uint256"
        }
      ],
      "stateMutability": "view",
      "type": "function",
      "constant": true
    },
    {
      "inputs": [
        {
          "internalType": "address",
          "name": "owner",
          "type": "address"
        },
        {
          "internalType": "uint256",
          "name": "index",
          "type": "uint256"
        }
      ],
      "name": "tokenOfOwnerByIndex",
      "outputs": [
        {
          "internalType": "uint256",
          "name": "",
          "type": "uint256"
        }
      ],
      "stateMutability": "view",
      "type": "function",
      "constant": true
    },
    {
      "inputs": [],
      "name": "totalSupply",
      "outputs": [
        {
          "internalType": "uint256",
          "name": "",
          "type": "uint256"
        }
      ],
      "stateMutability": "view",
      "type": "function",
      "constant": true
    },
    {
      "inputs": [
        {
          "internalType": "address",
          "name": "_from",
          "type": "address"
        },
        {
          "internalType": "address",
          "name": "_to",
          "type": "address"
        },
        {
          "internalType": "uint256",
          "name": "_tokenId",
          "type": "uint256"
        }
      ],
      "name": "transferFrom",
      "outputs": [],
      "stateMutability": "nonpayable",
      "type": "function"
    },
    {
      "inputs": [
        {
          "internalType": "string",
          "name": "_ertex",
          "type": "string"
        }
      ],
      "name": "mint",
      "outputs": [],
      "stateMutability": "nonpayable",
      "type": "function"
    }
  ],
  "bytecode": "0x60806040523480156200001157600080fd5b506040518060400160405280600581526020016408ae4e8caf60db1b8152506040518060400160405280600481526020016308aa4a8b60e31b8152508181620000807f75e79be6cc7b0fa1c9ef93c49173e275135de3af55610b234fd35ad9f20df3816200012b60201b60201c565b620000ab7f6c5b7360b116f8fd1d2a1ccb905de5c6a9e91e31b88b8db3cd997e184f357e9f6200012b565b6001620000b9838262000254565b506002620000c8828262000254565b50620000f891507f92d8a794d910422f7549620ed7a8f75c2c42d18032da05c61ed89586344e965e90506200012b565b620001237fdcfcbd2b080c4d5bf73a584a611cd1ca6ca0b40cc8cf6c18dcea5e35749db4566200012b565b505062000320565b6001600160e01b031980821690036200018a5760405162461bcd60e51b815260206004820152601960248201527f496e76616c696420696e74657266616365207265717565737400000000000000604482015260640160405180910390fd5b6001600160e01b0319166000908152602081905260409020805460ff19166001179055565b634e487b7160e01b600052604160045260246000fd5b600181811c90821680620001da57607f821691505b602082108103620001fb57634e487b7160e01b600052602260045260246000fd5b50919050565b601f8211156200024f57600081815260208120601f850160051c810160208610156200022a5750805b601f850160051c820191505b818110156200024b5782815560010162000236565b5050505b505050565b81516001600160401b03811115620002705762000270620001af565b6200028881620002818454620001c5565b8462000201565b602080601f831160018114620002c05760008415620002a75750858301515b600019600386901b1c1916600185901b1785556200024b565b600085815260208120601f198616915b82811015620002f157888601518255948401946001909101908401620002d0565b5085821015620003105787850151600019600388901b60f8161c191681555b5050505050600190811b01905550565b610f9780620003306000396000f3fe608060405234801561001057600080fd5b50600436106100b45760003560e01c80634f6ccce7116100715780634f6ccce71461015d5780636352211e1461017057806370a082311461019b5780638abcf928146101ae57806395d89b41146101c1578063d85d3d27146101c957600080fd5b806301ffc9a7146100b957806306fdde03146100fb578063095ea7b31461011057806318160ddd1461012557806323b872dd146101375780632f745c591461014a575b600080fd5b6100e66100c7366004610ba6565b6001600160e01b03191660009081526020819052604090205460ff1690565b60405190151581526020015b60405180910390f35b6101036101dc565b6040516100f29190610bfb565b61012361011e366004610c4a565b61026e565b005b6006545b6040519081526020016100f2565b610123610145366004610c74565b61039f565b610129610158366004610c4a565b6103c2565b61012961016b366004610cb0565b610459565b61018361017e366004610cb0565b6104d7565b6040516001600160a01b0390911681526020016100f2565b6101296101a9366004610cc9565b61052e565b6101036101bc366004610cb0565b610596565b610103610642565b6101236101d7366004610cfa565b610651565b6060600180546101eb90610dab565b80601f016020809104026020016040519081016040528092919081815260200182805461021790610dab565b80156102645780601f1061023957610100808354040283529160200191610264565b820191906000526020600020905b81548152906001019060200180831161024757829003601f168201915b5050505050905090565b6000610279826104d7565b9050806001600160a01b0316836001600160a01b0316036102eb5760405162461bcd60e51b815260206004820152602160248201527f4572726f72202d20617070726f76616c20746f2063757272656e74206f776e656044820152603960f91b60648201526084015b60405180910390fd5b336001600160a01b038216146103435760405162461bcd60e51b815260206004820152601c60248201527f43757272656e742063616c6c6572206d757374206265206f776e65720000000060448201526064016102e2565b60008281526005602052604080822080546001600160a01b0319166001600160a01b0387811691821790925591518593918516917f8c5be1e5ebec7d5bd14f71427d1e84f3dd0314c0f7b2291e5b200ac8c7c3b92591a4505050565b6103a93382610752565b6103b257600080fd5b6103bd8383836107cf565b505050565b60006103cd8361052e565b821061041b5760405162461bcd60e51b815260206004820152601960248201527f4f776e657220696e646578206f7574206f6620626f756e64730000000000000060448201526064016102e2565b6001600160a01b038316600090815260086020526040902080548390811061044557610445610de5565b906000526020600020015490505b92915050565b600061046460065490565b82106104b25760405162461bcd60e51b815260206004820152601a60248201527f476c6f62616c20696e646578206f7574206f6620626f756e647300000000000060448201526064016102e2565b600682815481106104c5576104c5610de5565b90600052602060002001549050919050565b6000818152600360205260408120546001600160a01b0316806104535760405162461bcd60e51b815260206004820152600f60248201526e41646472657373206973207a65726f60881b60448201526064016102e2565b60006001600160a01b0382166105785760405162461bcd60e51b815260206004820152600f60248201526e41646472657373206973207a65726f60881b60448201526064016102e2565b6001600160a01b038216600090815260046020526040902054610453565b600a81815481106105a657600080fd5b9060005260206000200160009150905080546105c190610dab565b80601f01602080910402602001604051908101604052809291908181526020018280546105ed90610dab565b801561063a5780601f1061060f5761010080835404028352916020019161063a565b820191906000526020600020905b81548152906001019060200180831161061d57829003601f168201915b505050505081565b6060600280546101eb90610dab565b600b816040516106619190610dfb565b9081526040519081900360200190205460ff16156106c15760405162461bcd60e51b815260206004820152601c60248201527f4572726f72202d20746f6b656e20616c7265616479206578697374730000000060448201526064016102e2565b600a80546001810182556000919091527fc65a7bb8d6351c1cf70c95a316cc6a92839c986682d98bc35f958f4883f9d2a8016106fd8282610e65565b50600a5460009061071090600190610f3b565b905061071c3382610958565b6001600b8360405161072e9190610dfb565b908152604051908190036020019020805491151560ff199092169190911790555050565b6000818152600360205260408120546001600160a01b03166107ad5760405162461bcd60e51b8152602060048201526014602482015273151bdad95b88191bd95cc81b9bdd08195e1a5cdd60621b60448201526064016102e2565b60006107b8836104d7565b6001600160a01b0385811691161491505092915050565b6001600160a01b0382166108355760405162461bcd60e51b815260206004820152602760248201527f4572726f72202d20455243373231207472616e7366657220746f207a65726f206044820152666164647265737360c81b60648201526084016102e2565b826001600160a01b0316610848826104d7565b6001600160a01b0316146108ba5760405162461bcd60e51b815260206004820152603360248201527f547279696e6720746f207472616e73666572206120746f6b656e20746865206160448201527232323932b9b9903237b2b9903737ba1037bbb760691b60648201526084016102e2565b6001600160a01b03831660009081526004602052604090206108db906109dd565b6001600160a01b03821660009081526004602052604090206108fc906109ee565b60008181526003602052604080822080546001600160a01b0319166001600160a01b0386811691821790925591518493918716917fddf252ad1be2c89b69c2b068fc378daa952ba7f163c4a11628f55a4df523b3ef91a4505050565b6109628282610a0b565b6001600160a01b039190911660009081526008602090815260408083208054858552600984528285208190556001808201835591855283852001859055600680548686526007909452918420839055820181559091527ff652222313e28459528d920b65115c16c04f3efc82aaedc97be59f3f377c0d3f0155565b80546109ea906001610b41565b9055565b6001816000016000828254610a039190610f4e565b909155505050565b6001600160a01b038216610a615760405162461bcd60e51b815260206004820152601f60248201527f4552433732313a206d696e74696e6720746f207a65726f20616464726573730060448201526064016102e2565b6000818152600360205260409020546001600160a01b031615610ac65760405162461bcd60e51b815260206004820152601f60248201527f4552433732313a206d696e74696e6720746f207a65726f20616464726573730060448201526064016102e2565b600081815260036020908152604080832080546001600160a01b0319166001600160a01b038716908117909155835260049091529020610b05906109ee565b60405181906001600160a01b038416906000907fddf252ad1be2c89b69c2b068fc378daa952ba7f163c4a11628f55a4df523b3ef908290a45050565b6000828210610b925760405162461bcd60e51b815260206004820152601e60248201527f536166654d6174683a207375627472616374696f6e206f766572666c6f77000060448201526064016102e2565b6000610b9e8385610f3b565b949350505050565b600060208284031215610bb857600080fd5b81356001600160e01b031981168114610bd057600080fd5b9392505050565b60005b83811015610bf2578181015183820152602001610bda565b50506000910152565b6020815260008251806020840152610c1a816040850160208701610bd7565b601f01601f19169190910160400192915050565b80356001600160a01b0381168114610c4557600080fd5b919050565b60008060408385031215610c5d57600080fd5b610c6683610c2e565b946020939093013593505050565b600080600060608486031215610c8957600080fd5b610c9284610c2e565b9250610ca060208501610c2e565b9150604084013590509250925092565b600060208284031215610cc257600080fd5b5035919050565b600060208284031215610cdb57600080fd5b610bd082610c2e565b634e487b7160e01b600052604160045260246000fd5b600060208284031215610d0c57600080fd5b813567ffffffffffffffff80821115610d2457600080fd5b818401915084601f830112610d3857600080fd5b813581811115610d4a57610d4a610ce4565b604051601f8201601f19908116603f01168101908382118183101715610d7257610d72610ce4565b81604052828152876020848701011115610d8b57600080fd5b826020860160208301376000928101602001929092525095945050505050565b600181811c90821680610dbf57607f821691505b602082108103610ddf57634e487b7160e01b600052602260045260246000fd5b50919050565b634e487b7160e01b600052603260045260246000fd5b60008251610e0d818460208701610bd7565b9190910192915050565b601f8211156103bd57600081815260208120601f850160051c81016020861015610e3e5750805b601f850160051c820191505b81811015610e5d57828155600101610e4a565b505050505050565b815167ffffffffffffffff811115610e7f57610e7f610ce4565b610e9381610e8d8454610dab565b84610e17565b602080601f831160018114610ec85760008415610eb05750858301515b600019600386901b1c1916600185901b178555610e5d565b600085815260208120601f198616915b82811015610ef757888601518255948401946001909101908401610ed8565b5085821015610f155787850151600019600388901b60f8161c191681555b5050505050600190811b01905550565b634e487b7160e01b600052601160045260246000fd5b8181038181111561045357610453610f25565b8082018082111561045357610453610f2556fea2646970667358221220e88f281b1a593203bd03b2474bb48613f355da8cace09bd1d6bfb2b65915c0f064736f6c63430008150033",
  "immutableReferences": {},
  "source": "// SPDX-License-Identifier: MIT\r\n\r\npragma solidity ^0.8.21;\r\n\r\nimport './ERC721Connector.sol';\r\n\r\ncontract Ertex is ERC721Connector {\r\n\r\n    // matriz para guardar NFTs\r\n    string[] public ErtexNFTS;\r\n\r\n    mapping(string => bool) _ertexExists;\r\n\r\n    function mint(string memory _ertex) public {\r\n\r\n        require(!_ertexExists[_ertex], 'Error - token already exists');\r\n\r\n        ErtexNFTS.push(_ertex);\r\n        uint _id = ErtexNFTS.length - 1;\r\n        \r\n        _mint(msg.sender, _id);\r\n\r\n        _ertexExists[_ertex] = true;\r\n    }\r\n\r\n    constructor() ERC721Connector('Ertex', 'ERTX') {}\r\n\r\n}",
  "sourcePath": "C:\\dev\\ertex\\src\\contracts\\Ertex.sol",
  "compiler": {
    "name": "solc",
    "version": "0.8.21+commit.d9974bed.Emscripten.clang"
  },
  "schemaVersion": "3.4.16",
  "updatedAt": "2026-02-01T06:00:23.646Z",
  "networkType": "ethereum",
  "devdoc": {
    "kind": "dev",
    "methods": {},
    "version": 1
  },
  "userdoc": {
    "kind": "user",
    "methods": {},
    "version": 1
  }
}